{
	"guyue2/day2-SaveMyName.sol": {
		"SaveMyName": {
			"abi": [
				{
					"inputs": [
						{
							"internalType": "string",
							"name": "_name",
							"type": "string"
						},
						{
							"internalType": "string",
							"name": "_bio",
							"type": "string"
						}
					],
					"name": "add",
					"outputs": [],
					"stateMutability": "nonpayable",
					"type": "function"
				},
				{
					"inputs": [],
					"name": "retrieve",
					"outputs": [
						{
							"internalType": "string",
							"name": "",
							"type": "string"
						},
						{
							"internalType": "string",
							"name": "",
							"type": "string"
						}
					],
					"stateMutability": "view",
					"type": "function"
				},
				{
					"inputs": [
						{
							"internalType": "string",
							"name": "_name",
							"type": "string"
						},
						{
							"internalType": "string",
							"name": "_bio",
							"type": "string"
						}
					],
					"name": "saveAndRetrieve",
					"outputs": [
						{
							"internalType": "string",
							"name": "",
							"type": "string"
						},
						{
							"internalType": "string",
							"name": "",
							"type": "string"
						}
					],
					"stateMutability": "nonpayable",
					"type": "function"
				}
			],
			"devdoc": {
				"kind": "dev",
				"methods": {},
				"version": 1
			},
			"evm": {
				"assembly": "    /* \"guyue2/day2-SaveMyName.sol\":55:668  contract SaveMyName{... */\n  mstore(0x40, 0x80)\n  callvalue\n  dup1\n  iszero\n  tag_1\n  jumpi\n  revert(0x00, 0x00)\ntag_1:\n  pop\n  dataSize(sub_0)\n  dup1\n  dataOffset(sub_0)\n  0x00\n  codecopy\n  0x00\n  return\nstop\n\nsub_0: assembly {\n        /* \"guyue2/day2-SaveMyName.sol\":55:668  contract SaveMyName{... */\n      mstore(0x40, 0x80)\n      callvalue\n      dup1\n      iszero\n      tag_1\n      jumpi\n      revert(0x00, 0x00)\n    tag_1:\n      pop\n      jumpi(tag_2, lt(calldatasize, 0x04))\n      shr(0xe0, calldataload(0x00))\n      dup1\n      0x2e64cec1\n      eq\n      tag_3\n      jumpi\n      dup1\n      0xaa702942\n      eq\n      tag_4\n      jumpi\n      dup1\n      0xebdf86ca\n      eq\n      tag_5\n      jumpi\n    tag_2:\n      revert(0x00, 0x00)\n        /* \"guyue2/day2-SaveMyName.sol\":331:431  function retrieve()public view returns(string memory,string memory){... */\n    tag_3:\n      tag_6\n      tag_7\n      jump\t// in\n    tag_6:\n      mload(0x40)\n      tag_8\n      swap3\n      swap2\n      swap1\n      tag_9\n      jump\t// in\n    tag_8:\n      mload(0x40)\n      dup1\n      swap2\n      sub\n      swap1\n      return\n        /* \"guyue2/day2-SaveMyName.sol\":478:666  function saveAndRetrieve(string memory _name,string memory _bio)... */\n    tag_4:\n      tag_10\n      0x04\n      dup1\n      calldatasize\n      sub\n      dup2\n      add\n      swap1\n      tag_11\n      swap2\n      swap1\n      tag_12\n      jump\t// in\n    tag_11:\n      tag_13\n      jump\t// in\n    tag_10:\n      mload(0x40)\n      tag_14\n      swap3\n      swap2\n      swap1\n      tag_9\n      jump\t// in\n    tag_14:\n      mload(0x40)\n      dup1\n      swap2\n      sub\n      swap1\n      return\n        /* \"guyue2/day2-SaveMyName.sol\":187:294  function add(string memory _name,string memory _bio)public{... */\n    tag_5:\n      tag_15\n      0x04\n      dup1\n      calldatasize\n      sub\n      dup2\n      add\n      swap1\n      tag_16\n      swap2\n      swap1\n      tag_12\n      jump\t// in\n    tag_16:\n      tag_17\n      jump\t// in\n    tag_15:\n      stop\n        /* \"guyue2/day2-SaveMyName.sol\":331:431  function retrieve()public view returns(string memory,string memory){... */\n    tag_7:\n        /* \"guyue2/day2-SaveMyName.sol\":370:383  string memory */\n      0x60\n        /* \"guyue2/day2-SaveMyName.sol\":384:397  string memory */\n      dup1\n        /* \"guyue2/day2-SaveMyName.sol\":415:419  name */\n      0x00\n        /* \"guyue2/day2-SaveMyName.sol\":420:423  bio */\n      0x01\n        /* \"guyue2/day2-SaveMyName.sol\":408:424  return(name,bio) */\n      dup2\n      dup1\n      sload\n      tag_19\n      swap1\n      tag_20\n      jump\t// in\n    tag_19:\n      dup1\n      0x1f\n      add\n      0x20\n      dup1\n      swap2\n      div\n      mul\n      0x20\n      add\n      mload(0x40)\n      swap1\n      dup2\n      add\n      0x40\n      mstore\n      dup1\n      swap3\n      swap2\n      swap1\n      dup2\n      dup2\n      mstore\n      0x20\n      add\n      dup3\n      dup1\n      sload\n      tag_21\n      swap1\n      tag_20\n      jump\t// in\n    tag_21:\n      dup1\n      iszero\n      tag_22\n      jumpi\n      dup1\n      0x1f\n      lt\n      tag_23\n      jumpi\n      0x0100\n      dup1\n      dup4\n      sload\n      div\n      mul\n      dup4\n      mstore\n      swap2\n      0x20\n      add\n      swap2\n      jump(tag_22)\n    tag_23:\n      dup3\n      add\n      swap2\n      swap1\n      0x00\n      mstore\n      keccak256(0x00, 0x20)\n      swap1\n    tag_24:\n      dup2\n      sload\n      dup2\n      mstore\n      swap1\n      0x01\n      add\n      swap1\n      0x20\n      add\n      dup1\n      dup4\n      gt\n      tag_24\n      jumpi\n      dup3\n      swap1\n      sub\n      0x1f\n      and\n      dup3\n      add\n      swap2\n    tag_22:\n      pop\n      pop\n      pop\n      pop\n      pop\n      swap2\n      pop\n      dup1\n      dup1\n      sload\n      tag_25\n      swap1\n      tag_20\n      jump\t// in\n    tag_25:\n      dup1\n      0x1f\n      add\n      0x20\n      dup1\n      swap2\n      div\n      mul\n      0x20\n      add\n      mload(0x40)\n      swap1\n      dup2\n      add\n      0x40\n      mstore\n      dup1\n      swap3\n      swap2\n      swap1\n      dup2\n      dup2\n      mstore\n      0x20\n      add\n      dup3\n      dup1\n      sload\n      tag_26\n      swap1\n      tag_20\n      jump\t// in\n    tag_26:\n      dup1\n      iszero\n      tag_27\n      jumpi\n      dup1\n      0x1f\n      lt\n      tag_28\n      jumpi\n      0x0100\n      dup1\n      dup4\n      sload\n      div\n      mul\n      dup4\n      mstore\n      swap2\n      0x20\n      add\n      swap2\n      jump(tag_27)\n    tag_28:\n      dup3\n      add\n      swap2\n      swap1\n      0x00\n      mstore\n      keccak256(0x00, 0x20)\n      swap1\n    tag_29:\n      dup2\n      sload\n      dup2\n      mstore\n      swap1\n      0x01\n      add\n      swap1\n      0x20\n      add\n      dup1\n      dup4\n      gt\n      tag_29\n      jumpi\n      dup3\n      swap1\n      sub\n      0x1f\n      and\n      dup3\n      add\n      swap2\n    tag_27:\n      pop\n      pop\n      pop\n      pop\n      pop\n      swap1\n      pop\n      swap2\n      pop\n      swap2\n      pop\n        /* \"guyue2/day2-SaveMyName.sol\":331:431  function retrieve()public view returns(string memory,string memory){... */\n      swap1\n      swap2\n      jump\t// out\n        /* \"guyue2/day2-SaveMyName.sol\":478:666  function saveAndRetrieve(string memory _name,string memory _bio)... */\n    tag_13:\n        /* \"guyue2/day2-SaveMyName.sol\":562:575  string memory */\n      0x60\n        /* \"guyue2/day2-SaveMyName.sol\":576:589  string memory */\n      dup1\n        /* \"guyue2/day2-SaveMyName.sol\":607:612  _name */\n      dup4\n        /* \"guyue2/day2-SaveMyName.sol\":600:604  name */\n      0x00\n        /* \"guyue2/day2-SaveMyName.sol\":600:612  name = _name */\n      swap1\n      dup2\n      tag_31\n      swap2\n      swap1\n      tag_32\n      jump\t// in\n    tag_31:\n      pop\n        /* \"guyue2/day2-SaveMyName.sol\":628:632  _bio */\n      dup3\n        /* \"guyue2/day2-SaveMyName.sol\":622:625  bio */\n      0x01\n        /* \"guyue2/day2-SaveMyName.sol\":622:632  bio = _bio */\n      swap1\n      dup2\n      tag_33\n      swap2\n      swap1\n      tag_32\n      jump\t// in\n    tag_33:\n      pop\n        /* \"guyue2/day2-SaveMyName.sol\":650:654  name */\n      0x00\n        /* \"guyue2/day2-SaveMyName.sol\":655:658  bio */\n      0x01\n        /* \"guyue2/day2-SaveMyName.sol\":642:659  return (name,bio) */\n      dup2\n      dup1\n      sload\n      tag_34\n      swap1\n      tag_20\n      jump\t// in\n    tag_34:\n      dup1\n      0x1f\n      add\n      0x20\n      dup1\n      swap2\n      div\n      mul\n      0x20\n      add\n      mload(0x40)\n      swap1\n      dup2\n      add\n      0x40\n      mstore\n      dup1\n      swap3\n      swap2\n      swap1\n      dup2\n      dup2\n      mstore\n      0x20\n      add\n      dup3\n      dup1\n      sload\n      tag_35\n      swap1\n      tag_20\n      jump\t// in\n    tag_35:\n      dup1\n      iszero\n      tag_36\n      jumpi\n      dup1\n      0x1f\n      lt\n      tag_37\n      jumpi\n      0x0100\n      dup1\n      dup4\n      sload\n      div\n      mul\n      dup4\n      mstore\n      swap2\n      0x20\n      add\n      swap2\n      jump(tag_36)\n    tag_37:\n      dup3\n      add\n      swap2\n      swap1\n      0x00\n      mstore\n      keccak256(0x00, 0x20)\n      swap1\n    tag_38:\n      dup2\n      sload\n      dup2\n      mstore\n      swap1\n      0x01\n      add\n      swap1\n      0x20\n      add\n      dup1\n      dup4\n      gt\n      tag_38\n      jumpi\n      dup3\n      swap1\n      sub\n      0x1f\n      and\n      dup3\n      add\n      swap2\n    tag_36:\n      pop\n      pop\n      pop\n      pop\n      pop\n      swap2\n      pop\n      dup1\n      dup1\n      sload\n      tag_39\n      swap1\n      tag_20\n      jump\t// in\n    tag_39:\n      dup1\n      0x1f\n      add\n      0x20\n      dup1\n      swap2\n      div\n      mul\n      0x20\n      add\n      mload(0x40)\n      swap1\n      dup2\n      add\n      0x40\n      mstore\n      dup1\n      swap3\n      swap2\n      swap1\n      dup2\n      dup2\n      mstore\n      0x20\n      add\n      dup3\n      dup1\n      sload\n      tag_40\n      swap1\n      tag_20\n      jump\t// in\n    tag_40:\n      dup1\n      iszero\n      tag_41\n      jumpi\n      dup1\n      0x1f\n      lt\n      tag_42\n      jumpi\n      0x0100\n      dup1\n      dup4\n      sload\n      div\n      mul\n      dup4\n      mstore\n      swap2\n      0x20\n      add\n      swap2\n      jump(tag_41)\n    tag_42:\n      dup3\n      add\n      swap2\n      swap1\n      0x00\n      mstore\n      keccak256(0x00, 0x20)\n      swap1\n    tag_43:\n      dup2\n      sload\n      dup2\n      mstore\n      swap1\n      0x01\n      add\n      swap1\n      0x20\n      add\n      dup1\n      dup4\n      gt\n      tag_43\n      jumpi\n      dup3\n      swap1\n      sub\n      0x1f\n      and\n      dup3\n      add\n      swap2\n    tag_41:\n      pop\n      pop\n      pop\n      pop\n      pop\n      swap1\n      pop\n      swap2\n      pop\n      swap2\n      pop\n        /* \"guyue2/day2-SaveMyName.sol\":478:666  function saveAndRetrieve(string memory _name,string memory _bio)... */\n      swap3\n      pop\n      swap3\n      swap1\n      pop\n      jump\t// out\n        /* \"guyue2/day2-SaveMyName.sol\":187:294  function add(string memory _name,string memory _bio)public{... */\n    tag_17:\n        /* \"guyue2/day2-SaveMyName.sol\":262:267  _name */\n      dup2\n        /* \"guyue2/day2-SaveMyName.sol\":255:259  name */\n      0x00\n        /* \"guyue2/day2-SaveMyName.sol\":255:267  name = _name */\n      swap1\n      dup2\n      tag_45\n      swap2\n      swap1\n      tag_32\n      jump\t// in\n    tag_45:\n      pop\n        /* \"guyue2/day2-SaveMyName.sol\":283:287  _bio */\n      dup1\n        /* \"guyue2/day2-SaveMyName.sol\":277:280  bio */\n      0x01\n        /* \"guyue2/day2-SaveMyName.sol\":277:287  bio = _bio */\n      swap1\n      dup2\n      tag_46\n      swap2\n      swap1\n      tag_32\n      jump\t// in\n    tag_46:\n      pop\n        /* \"guyue2/day2-SaveMyName.sol\":187:294  function add(string memory _name,string memory _bio)public{... */\n      pop\n      pop\n      jump\t// out\n        /* \"#utility.yul\":7:106   */\n    tag_47:\n        /* \"#utility.yul\":59:65   */\n      0x00\n        /* \"#utility.yul\":93:98   */\n      dup2\n        /* \"#utility.yul\":87:99   */\n      mload\n        /* \"#utility.yul\":77:99   */\n      swap1\n      pop\n        /* \"#utility.yul\":7:106   */\n      swap2\n      swap1\n      pop\n      jump\t// out\n        /* \"#utility.yul\":112:281   */\n    tag_48:\n        /* \"#utility.yul\":196:207   */\n      0x00\n        /* \"#utility.yul\":230:236   */\n      dup3\n        /* \"#utility.yul\":225:228   */\n      dup3\n        /* \"#utility.yul\":218:237   */\n      mstore\n        /* \"#utility.yul\":270:274   */\n      0x20\n        /* \"#utility.yul\":265:268   */\n      dup3\n        /* \"#utility.yul\":261:275   */\n      add\n        /* \"#utility.yul\":246:275   */\n      swap1\n      pop\n        /* \"#utility.yul\":112:281   */\n      swap3\n      swap2\n      pop\n      pop\n      jump\t// out\n        /* \"#utility.yul\":287:426   */\n    tag_49:\n        /* \"#utility.yul\":376:382   */\n      dup3\n        /* \"#utility.yul\":371:374   */\n      dup2\n        /* \"#utility.yul\":366:369   */\n      dup4\n        /* \"#utility.yul\":360:383   */\n      mcopy\n        /* \"#utility.yul\":417:418   */\n      0x00\n        /* \"#utility.yul\":408:414   */\n      dup4\n        /* \"#utility.yul\":403:406   */\n      dup4\n        /* \"#utility.yul\":399:415   */\n      add\n        /* \"#utility.yul\":392:419   */\n      mstore\n        /* \"#utility.yul\":287:426   */\n      pop\n      pop\n      pop\n      jump\t// out\n        /* \"#utility.yul\":432:534   */\n    tag_50:\n        /* \"#utility.yul\":473:479   */\n      0x00\n        /* \"#utility.yul\":524:526   */\n      0x1f\n        /* \"#utility.yul\":520:527   */\n      not\n        /* \"#utility.yul\":515:517   */\n      0x1f\n        /* \"#utility.yul\":508:513   */\n      dup4\n        /* \"#utility.yul\":504:518   */\n      add\n        /* \"#utility.yul\":500:528   */\n      and\n        /* \"#utility.yul\":490:528   */\n      swap1\n      pop\n        /* \"#utility.yul\":432:534   */\n      swap2\n      swap1\n      pop\n      jump\t// out\n        /* \"#utility.yul\":540:917   */\n    tag_51:\n        /* \"#utility.yul\":628:631   */\n      0x00\n        /* \"#utility.yul\":656:695   */\n      tag_87\n        /* \"#utility.yul\":689:694   */\n      dup3\n        /* \"#utility.yul\":656:695   */\n      tag_47\n      jump\t// in\n    tag_87:\n        /* \"#utility.yul\":711:782   */\n      tag_88\n        /* \"#utility.yul\":775:781   */\n      dup2\n        /* \"#utility.yul\":770:773   */\n      dup6\n        /* \"#utility.yul\":711:782   */\n      tag_48\n      jump\t// in\n    tag_88:\n        /* \"#utility.yul\":704:782   */\n      swap4\n      pop\n        /* \"#utility.yul\":791:856   */\n      tag_89\n        /* \"#utility.yul\":849:855   */\n      dup2\n        /* \"#utility.yul\":844:847   */\n      dup6\n        /* \"#utility.yul\":837:841   */\n      0x20\n        /* \"#utility.yul\":830:835   */\n      dup7\n        /* \"#utility.yul\":826:842   */\n      add\n        /* \"#utility.yul\":791:856   */\n      tag_49\n      jump\t// in\n    tag_89:\n        /* \"#utility.yul\":881:910   */\n      tag_90\n        /* \"#utility.yul\":903:909   */\n      dup2\n        /* \"#utility.yul\":881:910   */\n      tag_50\n      jump\t// in\n    tag_90:\n        /* \"#utility.yul\":876:879   */\n      dup5\n        /* \"#utility.yul\":872:911   */\n      add\n        /* \"#utility.yul\":865:911   */\n      swap2\n      pop\n        /* \"#utility.yul\":632:917   */\n      pop\n        /* \"#utility.yul\":540:917   */\n      swap3\n      swap2\n      pop\n      pop\n      jump\t// out\n        /* \"#utility.yul\":923:1437   */\n    tag_9:\n        /* \"#utility.yul\":1084:1088   */\n      0x00\n        /* \"#utility.yul\":1122:1124   */\n      0x40\n        /* \"#utility.yul\":1111:1120   */\n      dup3\n        /* \"#utility.yul\":1107:1125   */\n      add\n        /* \"#utility.yul\":1099:1125   */\n      swap1\n      pop\n        /* \"#utility.yul\":1171:1180   */\n      dup2\n        /* \"#utility.yul\":1165:1169   */\n      dup2\n        /* \"#utility.yul\":1161:1181   */\n      sub\n        /* \"#utility.yul\":1157:1158   */\n      0x00\n        /* \"#utility.yul\":1146:1155   */\n      dup4\n        /* \"#utility.yul\":1142:1159   */\n      add\n        /* \"#utility.yul\":1135:1182   */\n      mstore\n        /* \"#utility.yul\":1199:1277   */\n      tag_92\n        /* \"#utility.yul\":1272:1276   */\n      dup2\n        /* \"#utility.yul\":1263:1269   */\n      dup6\n        /* \"#utility.yul\":1199:1277   */\n      tag_51\n      jump\t// in\n    tag_92:\n        /* \"#utility.yul\":1191:1277   */\n      swap1\n      pop\n        /* \"#utility.yul\":1324:1333   */\n      dup2\n        /* \"#utility.yul\":1318:1322   */\n      dup2\n        /* \"#utility.yul\":1314:1334   */\n      sub\n        /* \"#utility.yul\":1309:1311   */\n      0x20\n        /* \"#utility.yul\":1298:1307   */\n      dup4\n        /* \"#utility.yul\":1294:1312   */\n      add\n        /* \"#utility.yul\":1287:1335   */\n      mstore\n        /* \"#utility.yul\":1352:1430   */\n      tag_93\n        /* \"#utility.yul\":1425:1429   */\n      dup2\n        /* \"#utility.yul\":1416:1422   */\n      dup5\n        /* \"#utility.yul\":1352:1430   */\n      tag_51\n      jump\t// in\n    tag_93:\n        /* \"#utility.yul\":1344:1430   */\n      swap1\n      pop\n        /* \"#utility.yul\":923:1437   */\n      swap4\n      swap3\n      pop\n      pop\n      pop\n      jump\t// out\n        /* \"#utility.yul\":1443:1518   */\n    tag_52:\n        /* \"#utility.yul\":1476:1482   */\n      0x00\n        /* \"#utility.yul\":1509:1511   */\n      0x40\n        /* \"#utility.yul\":1503:1512   */\n      mload\n        /* \"#utility.yul\":1493:1512   */\n      swap1\n      pop\n        /* \"#utility.yul\":1443:1518   */\n      swap1\n      jump\t// out\n        /* \"#utility.yul\":1524:1641   */\n    tag_53:\n        /* \"#utility.yul\":1633:1634   */\n      0x00\n        /* \"#utility.yul\":1630:1631   */\n      0x00\n        /* \"#utility.yul\":1623:1635   */\n      revert\n        /* \"#utility.yul\":1647:1764   */\n    tag_54:\n        /* \"#utility.yul\":1756:1757   */\n      0x00\n        /* \"#utility.yul\":1753:1754   */\n      0x00\n        /* \"#utility.yul\":1746:1758   */\n      revert\n        /* \"#utility.yul\":1770:1887   */\n    tag_55:\n        /* \"#utility.yul\":1879:1880   */\n      0x00\n        /* \"#utility.yul\":1876:1877   */\n      0x00\n        /* \"#utility.yul\":1869:1881   */\n      revert\n        /* \"#utility.yul\":1893:2010   */\n    tag_56:\n        /* \"#utility.yul\":2002:2003   */\n      0x00\n        /* \"#utility.yul\":1999:2000   */\n      0x00\n        /* \"#utility.yul\":1992:2004   */\n      revert\n        /* \"#utility.yul\":2016:2196   */\n    tag_57:\n        /* \"#utility.yul\":2064:2141   */\n      0x4e487b7100000000000000000000000000000000000000000000000000000000\n        /* \"#utility.yul\":2061:2062   */\n      0x00\n        /* \"#utility.yul\":2054:2142   */\n      mstore\n        /* \"#utility.yul\":2161:2165   */\n      0x41\n        /* \"#utility.yul\":2158:2159   */\n      0x04\n        /* \"#utility.yul\":2151:2166   */\n      mstore\n        /* \"#utility.yul\":2185:2189   */\n      0x24\n        /* \"#utility.yul\":2182:2183   */\n      0x00\n        /* \"#utility.yul\":2175:2190   */\n      revert\n        /* \"#utility.yul\":2202:2483   */\n    tag_58:\n        /* \"#utility.yul\":2285:2312   */\n      tag_101\n        /* \"#utility.yul\":2307:2311   */\n      dup3\n        /* \"#utility.yul\":2285:2312   */\n      tag_50\n      jump\t// in\n    tag_101:\n        /* \"#utility.yul\":2277:2283   */\n      dup2\n        /* \"#utility.yul\":2273:2313   */\n      add\n        /* \"#utility.yul\":2415:2421   */\n      dup2\n        /* \"#utility.yul\":2403:2413   */\n      dup2\n        /* \"#utility.yul\":2400:2422   */\n      lt\n        /* \"#utility.yul\":2379:2397   */\n      0xffffffffffffffff\n        /* \"#utility.yul\":2367:2377   */\n      dup3\n        /* \"#utility.yul\":2364:2398   */\n      gt\n        /* \"#utility.yul\":2361:2423   */\n      or\n        /* \"#utility.yul\":2358:2446   */\n      iszero\n      tag_102\n      jumpi\n        /* \"#utility.yul\":2426:2444   */\n      tag_103\n      tag_57\n      jump\t// in\n    tag_103:\n        /* \"#utility.yul\":2358:2446   */\n    tag_102:\n        /* \"#utility.yul\":2466:2476   */\n      dup1\n        /* \"#utility.yul\":2462:2464   */\n      0x40\n        /* \"#utility.yul\":2455:2477   */\n      mstore\n        /* \"#utility.yul\":2245:2483   */\n      pop\n        /* \"#utility.yul\":2202:2483   */\n      pop\n      pop\n      jump\t// out\n        /* \"#utility.yul\":2489:2618   */\n    tag_59:\n        /* \"#utility.yul\":2523:2529   */\n      0x00\n        /* \"#utility.yul\":2550:2570   */\n      tag_105\n      tag_52\n      jump\t// in\n    tag_105:\n        /* \"#utility.yul\":2540:2570   */\n      swap1\n      pop\n        /* \"#utility.yul\":2579:2612   */\n      tag_106\n        /* \"#utility.yul\":2607:2611   */\n      dup3\n        /* \"#utility.yul\":2599:2605   */\n      dup3\n        /* \"#utility.yul\":2579:2612   */\n      tag_58\n      jump\t// in\n    tag_106:\n        /* \"#utility.yul\":2489:2618   */\n      swap2\n      swap1\n      pop\n      jump\t// out\n        /* \"#utility.yul\":2624:2932   */\n    tag_60:\n        /* \"#utility.yul\":2686:2690   */\n      0x00\n        /* \"#utility.yul\":2776:2794   */\n      0xffffffffffffffff\n        /* \"#utility.yul\":2768:2774   */\n      dup3\n        /* \"#utility.yul\":2765:2795   */\n      gt\n        /* \"#utility.yul\":2762:2818   */\n      iszero\n      tag_108\n      jumpi\n        /* \"#utility.yul\":2798:2816   */\n      tag_109\n      tag_57\n      jump\t// in\n    tag_109:\n        /* \"#utility.yul\":2762:2818   */\n    tag_108:\n        /* \"#utility.yul\":2836:2865   */\n      tag_110\n        /* \"#utility.yul\":2858:2864   */\n      dup3\n        /* \"#utility.yul\":2836:2865   */\n      tag_50\n      jump\t// in\n    tag_110:\n        /* \"#utility.yul\":2828:2865   */\n      swap1\n      pop\n        /* \"#utility.yul\":2920:2924   */\n      0x20\n        /* \"#utility.yul\":2914:2918   */\n      dup2\n        /* \"#utility.yul\":2910:2925   */\n      add\n        /* \"#utility.yul\":2902:2925   */\n      swap1\n      pop\n        /* \"#utility.yul\":2624:2932   */\n      swap2\n      swap1\n      pop\n      jump\t// out\n        /* \"#utility.yul\":2938:3086   */\n    tag_61:\n        /* \"#utility.yul\":3036:3042   */\n      dup3\n        /* \"#utility.yul\":3031:3034   */\n      dup2\n        /* \"#utility.yul\":3026:3029   */\n      dup4\n        /* \"#utility.yul\":3013:3043   */\n      calldatacopy\n        /* \"#utility.yul\":3077:3078   */\n      0x00\n        /* \"#utility.yul\":3068:3074   */\n      dup4\n        /* \"#utility.yul\":3063:3066   */\n      dup4\n        /* \"#utility.yul\":3059:3075   */\n      add\n        /* \"#utility.yul\":3052:3079   */\n      mstore\n        /* \"#utility.yul\":2938:3086   */\n      pop\n      pop\n      pop\n      jump\t// out\n        /* \"#utility.yul\":3092:3517   */\n    tag_62:\n        /* \"#utility.yul\":3170:3175   */\n      0x00\n        /* \"#utility.yul\":3195:3261   */\n      tag_113\n        /* \"#utility.yul\":3211:3260   */\n      tag_114\n        /* \"#utility.yul\":3253:3259   */\n      dup5\n        /* \"#utility.yul\":3211:3260   */\n      tag_60\n      jump\t// in\n    tag_114:\n        /* \"#utility.yul\":3195:3261   */\n      tag_59\n      jump\t// in\n    tag_113:\n        /* \"#utility.yul\":3186:3261   */\n      swap1\n      pop\n        /* \"#utility.yul\":3284:3290   */\n      dup3\n        /* \"#utility.yul\":3277:3282   */\n      dup2\n        /* \"#utility.yul\":3270:3291   */\n      mstore\n        /* \"#utility.yul\":3322:3326   */\n      0x20\n        /* \"#utility.yul\":3315:3320   */\n      dup2\n        /* \"#utility.yul\":3311:3327   */\n      add\n        /* \"#utility.yul\":3360:3363   */\n      dup5\n        /* \"#utility.yul\":3351:3357   */\n      dup5\n        /* \"#utility.yul\":3346:3349   */\n      dup5\n        /* \"#utility.yul\":3342:3358   */\n      add\n        /* \"#utility.yul\":3339:3364   */\n      gt\n        /* \"#utility.yul\":3336:3448   */\n      iszero\n      tag_115\n      jumpi\n        /* \"#utility.yul\":3367:3446   */\n      tag_116\n      tag_56\n      jump\t// in\n    tag_116:\n        /* \"#utility.yul\":3336:3448   */\n    tag_115:\n        /* \"#utility.yul\":3457:3511   */\n      tag_117\n        /* \"#utility.yul\":3504:3510   */\n      dup5\n        /* \"#utility.yul\":3499:3502   */\n      dup3\n        /* \"#utility.yul\":3494:3497   */\n      dup6\n        /* \"#utility.yul\":3457:3511   */\n      tag_61\n      jump\t// in\n    tag_117:\n        /* \"#utility.yul\":3176:3517   */\n      pop\n        /* \"#utility.yul\":3092:3517   */\n      swap4\n      swap3\n      pop\n      pop\n      pop\n      jump\t// out\n        /* \"#utility.yul\":3537:3877   */\n    tag_63:\n        /* \"#utility.yul\":3593:3598   */\n      0x00\n        /* \"#utility.yul\":3642:3645   */\n      dup3\n        /* \"#utility.yul\":3635:3639   */\n      0x1f\n        /* \"#utility.yul\":3627:3633   */\n      dup4\n        /* \"#utility.yul\":3623:3640   */\n      add\n        /* \"#utility.yul\":3619:3646   */\n      slt\n        /* \"#utility.yul\":3609:3731   */\n      tag_119\n      jumpi\n        /* \"#utility.yul\":3650:3729   */\n      tag_120\n      tag_55\n      jump\t// in\n    tag_120:\n        /* \"#utility.yul\":3609:3731   */\n    tag_119:\n        /* \"#utility.yul\":3767:3773   */\n      dup2\n        /* \"#utility.yul\":3754:3774   */\n      calldataload\n        /* \"#utility.yul\":3792:3871   */\n      tag_121\n        /* \"#utility.yul\":3867:3870   */\n      dup5\n        /* \"#utility.yul\":3859:3865   */\n      dup3\n        /* \"#utility.yul\":3852:3856   */\n      0x20\n        /* \"#utility.yul\":3844:3850   */\n      dup7\n        /* \"#utility.yul\":3840:3857   */\n      add\n        /* \"#utility.yul\":3792:3871   */\n      tag_62\n      jump\t// in\n    tag_121:\n        /* \"#utility.yul\":3783:3871   */\n      swap2\n      pop\n        /* \"#utility.yul\":3599:3877   */\n      pop\n        /* \"#utility.yul\":3537:3877   */\n      swap3\n      swap2\n      pop\n      pop\n      jump\t// out\n        /* \"#utility.yul\":3883:4717   */\n    tag_12:\n        /* \"#utility.yul\":3971:3977   */\n      0x00\n        /* \"#utility.yul\":3979:3985   */\n      0x00\n        /* \"#utility.yul\":4028:4030   */\n      0x40\n        /* \"#utility.yul\":4016:4025   */\n      dup4\n        /* \"#utility.yul\":4007:4014   */\n      dup6\n        /* \"#utility.yul\":4003:4026   */\n      sub\n        /* \"#utility.yul\":3999:4031   */\n      slt\n        /* \"#utility.yul\":3996:4115   */\n      iszero\n      tag_123\n      jumpi\n        /* \"#utility.yul\":4034:4113   */\n      tag_124\n      tag_53\n      jump\t// in\n    tag_124:\n        /* \"#utility.yul\":3996:4115   */\n    tag_123:\n        /* \"#utility.yul\":4182:4183   */\n      0x00\n        /* \"#utility.yul\":4171:4180   */\n      dup4\n        /* \"#utility.yul\":4167:4184   */\n      add\n        /* \"#utility.yul\":4154:4185   */\n      calldataload\n        /* \"#utility.yul\":4212:4230   */\n      0xffffffffffffffff\n        /* \"#utility.yul\":4204:4210   */\n      dup2\n        /* \"#utility.yul\":4201:4231   */\n      gt\n        /* \"#utility.yul\":4198:4315   */\n      iszero\n      tag_125\n      jumpi\n        /* \"#utility.yul\":4234:4313   */\n      tag_126\n      tag_54\n      jump\t// in\n    tag_126:\n        /* \"#utility.yul\":4198:4315   */\n    tag_125:\n        /* \"#utility.yul\":4339:4402   */\n      tag_127\n        /* \"#utility.yul\":4394:4401   */\n      dup6\n        /* \"#utility.yul\":4385:4391   */\n      dup3\n        /* \"#utility.yul\":4374:4383   */\n      dup7\n        /* \"#utility.yul\":4370:4392   */\n      add\n        /* \"#utility.yul\":4339:4402   */\n      tag_63\n      jump\t// in\n    tag_127:\n        /* \"#utility.yul\":4329:4402   */\n      swap3\n      pop\n        /* \"#utility.yul\":4125:4412   */\n      pop\n        /* \"#utility.yul\":4479:4481   */\n      0x20\n        /* \"#utility.yul\":4468:4477   */\n      dup4\n        /* \"#utility.yul\":4464:4482   */\n      add\n        /* \"#utility.yul\":4451:4483   */\n      calldataload\n        /* \"#utility.yul\":4510:4528   */\n      0xffffffffffffffff\n        /* \"#utility.yul\":4502:4508   */\n      dup2\n        /* \"#utility.yul\":4499:4529   */\n      gt\n        /* \"#utility.yul\":4496:4613   */\n      iszero\n      tag_128\n      jumpi\n        /* \"#utility.yul\":4532:4611   */\n      tag_129\n      tag_54\n      jump\t// in\n    tag_129:\n        /* \"#utility.yul\":4496:4613   */\n    tag_128:\n        /* \"#utility.yul\":4637:4700   */\n      tag_130\n        /* \"#utility.yul\":4692:4699   */\n      dup6\n        /* \"#utility.yul\":4683:4689   */\n      dup3\n        /* \"#utility.yul\":4672:4681   */\n      dup7\n        /* \"#utility.yul\":4668:4690   */\n      add\n        /* \"#utility.yul\":4637:4700   */\n      tag_63\n      jump\t// in\n    tag_130:\n        /* \"#utility.yul\":4627:4700   */\n      swap2\n      pop\n        /* \"#utility.yul\":4422:4710   */\n      pop\n        /* \"#utility.yul\":3883:4717   */\n      swap3\n      pop\n      swap3\n      swap1\n      pop\n      jump\t// out\n        /* \"#utility.yul\":4723:4903   */\n    tag_64:\n        /* \"#utility.yul\":4771:4848   */\n      0x4e487b7100000000000000000000000000000000000000000000000000000000\n        /* \"#utility.yul\":4768:4769   */\n      0x00\n        /* \"#utility.yul\":4761:4849   */\n      mstore\n        /* \"#utility.yul\":4868:4872   */\n      0x22\n        /* \"#utility.yul\":4865:4866   */\n      0x04\n        /* \"#utility.yul\":4858:4873   */\n      mstore\n        /* \"#utility.yul\":4892:4896   */\n      0x24\n        /* \"#utility.yul\":4889:4890   */\n      0x00\n        /* \"#utility.yul\":4882:4897   */\n      revert\n        /* \"#utility.yul\":4909:5229   */\n    tag_20:\n        /* \"#utility.yul\":4953:4959   */\n      0x00\n        /* \"#utility.yul\":4990:4991   */\n      0x02\n        /* \"#utility.yul\":4984:4988   */\n      dup3\n        /* \"#utility.yul\":4980:4992   */\n      div\n        /* \"#utility.yul\":4970:4992   */\n      swap1\n      pop\n        /* \"#utility.yul\":5037:5038   */\n      0x01\n        /* \"#utility.yul\":5031:5035   */\n      dup3\n        /* \"#utility.yul\":5027:5039   */\n      and\n        /* \"#utility.yul\":5058:5076   */\n      dup1\n        /* \"#utility.yul\":5048:5129   */\n      tag_133\n      jumpi\n        /* \"#utility.yul\":5114:5118   */\n      0x7f\n        /* \"#utility.yul\":5106:5112   */\n      dup3\n        /* \"#utility.yul\":5102:5119   */\n      and\n        /* \"#utility.yul\":5092:5119   */\n      swap2\n      pop\n        /* \"#utility.yul\":5048:5129   */\n    tag_133:\n        /* \"#utility.yul\":5176:5178   */\n      0x20\n        /* \"#utility.yul\":5168:5174   */\n      dup3\n        /* \"#utility.yul\":5165:5179   */\n      lt\n        /* \"#utility.yul\":5145:5163   */\n      dup2\n        /* \"#utility.yul\":5142:5180   */\n      sub\n        /* \"#utility.yul\":5139:5223   */\n      tag_134\n      jumpi\n        /* \"#utility.yul\":5195:5213   */\n      tag_135\n      tag_64\n      jump\t// in\n    tag_135:\n        /* \"#utility.yul\":5139:5223   */\n    tag_134:\n        /* \"#utility.yul\":4960:5229   */\n      pop\n        /* \"#utility.yul\":4909:5229   */\n      swap2\n      swap1\n      pop\n      jump\t// out\n        /* \"#utility.yul\":5235:5376   */\n    tag_65:\n        /* \"#utility.yul\":5284:5288   */\n      0x00\n        /* \"#utility.yul\":5307:5310   */\n      dup2\n        /* \"#utility.yul\":5299:5310   */\n      swap1\n      pop\n        /* \"#utility.yul\":5330:5333   */\n      dup2\n        /* \"#utility.yul\":5327:5328   */\n      0x00\n        /* \"#utility.yul\":5320:5334   */\n      mstore\n        /* \"#utility.yul\":5364:5368   */\n      0x20\n        /* \"#utility.yul\":5361:5362   */\n      0x00\n        /* \"#utility.yul\":5351:5369   */\n      keccak256\n        /* \"#utility.yul\":5343:5369   */\n      swap1\n      pop\n        /* \"#utility.yul\":5235:5376   */\n      swap2\n      swap1\n      pop\n      jump\t// out\n        /* \"#utility.yul\":5382:5475   */\n    tag_66:\n        /* \"#utility.yul\":5419:5425   */\n      0x00\n        /* \"#utility.yul\":5466:5468   */\n      0x20\n        /* \"#utility.yul\":5461:5463   */\n      0x1f\n        /* \"#utility.yul\":5454:5459   */\n      dup4\n        /* \"#utility.yul\":5450:5464   */\n      add\n        /* \"#utility.yul\":5446:5469   */\n      div\n        /* \"#utility.yul\":5436:5469   */\n      swap1\n      pop\n        /* \"#utility.yul\":5382:5475   */\n      swap2\n      swap1\n      pop\n      jump\t// out\n        /* \"#utility.yul\":5481:5588   */\n    tag_67:\n        /* \"#utility.yul\":5525:5533   */\n      0x00\n        /* \"#utility.yul\":5575:5580   */\n      dup3\n        /* \"#utility.yul\":5569:5573   */\n      dup3\n        /* \"#utility.yul\":5565:5581   */\n      shl\n        /* \"#utility.yul\":5544:5581   */\n      swap1\n      pop\n        /* \"#utility.yul\":5481:5588   */\n      swap3\n      swap2\n      pop\n      pop\n      jump\t// out\n        /* \"#utility.yul\":5594:5987   */\n    tag_68:\n        /* \"#utility.yul\":5663:5669   */\n      0x00\n        /* \"#utility.yul\":5713:5714   */\n      0x08\n        /* \"#utility.yul\":5701:5711   */\n      dup4\n        /* \"#utility.yul\":5697:5715   */\n      mul\n        /* \"#utility.yul\":5736:5833   */\n      tag_140\n        /* \"#utility.yul\":5766:5832   */\n      0xffffffffffffffffffffffffffffffffffffffffffffffffffffffffffffffff\n        /* \"#utility.yul\":5755:5764   */\n      dup3\n        /* \"#utility.yul\":5736:5833   */\n      tag_67\n      jump\t// in\n    tag_140:\n        /* \"#utility.yul\":5854:5893   */\n      tag_141\n        /* \"#utility.yul\":5884:5892   */\n      dup7\n        /* \"#utility.yul\":5873:5882   */\n      dup4\n        /* \"#utility.yul\":5854:5893   */\n      tag_67\n      jump\t// in\n    tag_141:\n        /* \"#utility.yul\":5842:5893   */\n      swap6\n      pop\n        /* \"#utility.yul\":5926:5930   */\n      dup1\n        /* \"#utility.yul\":5922:5931   */\n      not\n        /* \"#utility.yul\":5915:5920   */\n      dup5\n        /* \"#utility.yul\":5911:5932   */\n      and\n        /* \"#utility.yul\":5902:5932   */\n      swap4\n      pop\n        /* \"#utility.yul\":5975:5979   */\n      dup1\n        /* \"#utility.yul\":5965:5973   */\n      dup7\n        /* \"#utility.yul\":5961:5980   */\n      and\n        /* \"#utility.yul\":5954:5959   */\n      dup5\n        /* \"#utility.yul\":5951:5981   */\n      or\n        /* \"#utility.yul\":5941:5981   */\n      swap3\n      pop\n        /* \"#utility.yul\":5670:5987   */\n      pop\n      pop\n        /* \"#utility.yul\":5594:5987   */\n      swap4\n      swap3\n      pop\n      pop\n      pop\n      jump\t// out\n        /* \"#utility.yul\":5993:6070   */\n    tag_69:\n        /* \"#utility.yul\":6030:6037   */\n      0x00\n        /* \"#utility.yul\":6059:6064   */\n      dup2\n        /* \"#utility.yul\":6048:6064   */\n      swap1\n      pop\n        /* \"#utility.yul\":5993:6070   */\n      swap2\n      swap1\n      pop\n      jump\t// out\n        /* \"#utility.yul\":6076:6136   */\n    tag_70:\n        /* \"#utility.yul\":6104:6107   */\n      0x00\n        /* \"#utility.yul\":6125:6130   */\n      dup2\n        /* \"#utility.yul\":6118:6130   */\n      swap1\n      pop\n        /* \"#utility.yul\":6076:6136   */\n      swap2\n      swap1\n      pop\n      jump\t// out\n        /* \"#utility.yul\":6142:6284   */\n    tag_71:\n        /* \"#utility.yul\":6192:6201   */\n      0x00\n        /* \"#utility.yul\":6225:6278   */\n      tag_145\n        /* \"#utility.yul\":6243:6277   */\n      tag_146\n        /* \"#utility.yul\":6252:6276   */\n      tag_147\n        /* \"#utility.yul\":6270:6275   */\n      dup5\n        /* \"#utility.yul\":6252:6276   */\n      tag_69\n      jump\t// in\n    tag_147:\n        /* \"#utility.yul\":6243:6277   */\n      tag_70\n      jump\t// in\n    tag_146:\n        /* \"#utility.yul\":6225:6278   */\n      tag_69\n      jump\t// in\n    tag_145:\n        /* \"#utility.yul\":6212:6278   */\n      swap1\n      pop\n        /* \"#utility.yul\":6142:6284   */\n      swap2\n      swap1\n      pop\n      jump\t// out\n        /* \"#utility.yul\":6290:6365   */\n    tag_72:\n        /* \"#utility.yul\":6333:6336   */\n      0x00\n        /* \"#utility.yul\":6354:6359   */\n      dup2\n        /* \"#utility.yul\":6347:6359   */\n      swap1\n      pop\n        /* \"#utility.yul\":6290:6365   */\n      swap2\n      swap1\n      pop\n      jump\t// out\n        /* \"#utility.yul\":6371:6640   */\n    tag_73:\n        /* \"#utility.yul\":6481:6520   */\n      tag_150\n        /* \"#utility.yul\":6512:6519   */\n      dup4\n        /* \"#utility.yul\":6481:6520   */\n      tag_71\n      jump\t// in\n    tag_150:\n        /* \"#utility.yul\":6542:6633   */\n      tag_151\n        /* \"#utility.yul\":6591:6632   */\n      tag_152\n        /* \"#utility.yul\":6615:6631   */\n      dup3\n        /* \"#utility.yul\":6591:6632   */\n      tag_72\n      jump\t// in\n    tag_152:\n        /* \"#utility.yul\":6583:6589   */\n      dup5\n        /* \"#utility.yul\":6576:6580   */\n      dup5\n        /* \"#utility.yul\":6570:6581   */\n      sload\n        /* \"#utility.yul\":6542:6633   */\n      tag_68\n      jump\t// in\n    tag_151:\n        /* \"#utility.yul\":6536:6540   */\n      dup3\n        /* \"#utility.yul\":6529:6634   */\n      sstore\n        /* \"#utility.yul\":6447:6640   */\n      pop\n        /* \"#utility.yul\":6371:6640   */\n      pop\n      pop\n      pop\n      jump\t// out\n        /* \"#utility.yul\":6646:6719   */\n    tag_74:\n        /* \"#utility.yul\":6691:6694   */\n      0x00\n        /* \"#utility.yul\":6712:6713   */\n      0x00\n        /* \"#utility.yul\":6705:6713   */\n      swap1\n      pop\n        /* \"#utility.yul\":6646:6719   */\n      swap1\n      jump\t// out\n        /* \"#utility.yul\":6725:6914   */\n    tag_75:\n        /* \"#utility.yul\":6802:6834   */\n      tag_155\n      tag_74\n      jump\t// in\n    tag_155:\n        /* \"#utility.yul\":6843:6908   */\n      tag_156\n        /* \"#utility.yul\":6901:6907   */\n      dup2\n        /* \"#utility.yul\":6893:6899   */\n      dup5\n        /* \"#utility.yul\":6887:6891   */\n      dup5\n        /* \"#utility.yul\":6843:6908   */\n      tag_73\n      jump\t// in\n    tag_156:\n        /* \"#utility.yul\":6778:6914   */\n      pop\n        /* \"#utility.yul\":6725:6914   */\n      pop\n      pop\n      jump\t// out\n        /* \"#utility.yul\":6920:7106   */\n    tag_76:\n        /* \"#utility.yul\":6980:7100   */\n    tag_158:\n        /* \"#utility.yul\":6997:7000   */\n      dup2\n        /* \"#utility.yul\":6990:6995   */\n      dup2\n        /* \"#utility.yul\":6987:7001   */\n      lt\n        /* \"#utility.yul\":6980:7100   */\n      iszero\n      tag_160\n      jumpi\n        /* \"#utility.yul\":7051:7090   */\n      tag_161\n        /* \"#utility.yul\":7088:7089   */\n      0x00\n        /* \"#utility.yul\":7081:7086   */\n      dup3\n        /* \"#utility.yul\":7051:7090   */\n      tag_75\n      jump\t// in\n    tag_161:\n        /* \"#utility.yul\":7024:7025   */\n      0x01\n        /* \"#utility.yul\":7017:7022   */\n      dup2\n        /* \"#utility.yul\":7013:7026   */\n      add\n        /* \"#utility.yul\":7004:7026   */\n      swap1\n      pop\n        /* \"#utility.yul\":6980:7100   */\n      jump(tag_158)\n    tag_160:\n        /* \"#utility.yul\":6920:7106   */\n      pop\n      pop\n      jump\t// out\n        /* \"#utility.yul\":7112:7655   */\n    tag_77:\n        /* \"#utility.yul\":7213:7215   */\n      0x1f\n        /* \"#utility.yul\":7208:7211   */\n      dup3\n        /* \"#utility.yul\":7205:7216   */\n      gt\n        /* \"#utility.yul\":7202:7648   */\n      iszero\n      tag_163\n      jumpi\n        /* \"#utility.yul\":7247:7285   */\n      tag_164\n        /* \"#utility.yul\":7279:7284   */\n      dup2\n        /* \"#utility.yul\":7247:7285   */\n      tag_65\n      jump\t// in\n    tag_164:\n        /* \"#utility.yul\":7331:7360   */\n      tag_165\n        /* \"#utility.yul\":7349:7359   */\n      dup5\n        /* \"#utility.yul\":7331:7360   */\n      tag_66\n      jump\t// in\n    tag_165:\n        /* \"#utility.yul\":7321:7329   */\n      dup2\n        /* \"#utility.yul\":7317:7361   */\n      add\n        /* \"#utility.yul\":7514:7516   */\n      0x20\n        /* \"#utility.yul\":7502:7512   */\n      dup6\n        /* \"#utility.yul\":7499:7517   */\n      lt\n        /* \"#utility.yul\":7496:7545   */\n      iszero\n      tag_166\n      jumpi\n        /* \"#utility.yul\":7535:7543   */\n      dup2\n        /* \"#utility.yul\":7520:7543   */\n      swap1\n      pop\n        /* \"#utility.yul\":7496:7545   */\n    tag_166:\n        /* \"#utility.yul\":7558:7638   */\n      tag_167\n        /* \"#utility.yul\":7614:7636   */\n      tag_168\n        /* \"#utility.yul\":7632:7635   */\n      dup6\n        /* \"#utility.yul\":7614:7636   */\n      tag_66\n      jump\t// in\n    tag_168:\n        /* \"#utility.yul\":7604:7612   */\n      dup4\n        /* \"#utility.yul\":7600:7637   */\n      add\n        /* \"#utility.yul\":7587:7598   */\n      dup3\n        /* \"#utility.yul\":7558:7638   */\n      tag_76\n      jump\t// in\n    tag_167:\n        /* \"#utility.yul\":7217:7648   */\n      pop\n      pop\n        /* \"#utility.yul\":7202:7648   */\n    tag_163:\n        /* \"#utility.yul\":7112:7655   */\n      pop\n      pop\n      pop\n      jump\t// out\n        /* \"#utility.yul\":7661:7778   */\n    tag_78:\n        /* \"#utility.yul\":7715:7723   */\n      0x00\n        /* \"#utility.yul\":7765:7770   */\n      dup3\n        /* \"#utility.yul\":7759:7763   */\n      dup3\n        /* \"#utility.yul\":7755:7771   */\n      shr\n        /* \"#utility.yul\":7734:7771   */\n      swap1\n      pop\n        /* \"#utility.yul\":7661:7778   */\n      swap3\n      swap2\n      pop\n      pop\n      jump\t// out\n        /* \"#utility.yul\":7784:7953   */\n    tag_79:\n        /* \"#utility.yul\":7828:7834   */\n      0x00\n        /* \"#utility.yul\":7861:7912   */\n      tag_171\n        /* \"#utility.yul\":7909:7910   */\n      0x00\n        /* \"#utility.yul\":7905:7911   */\n      not\n        /* \"#utility.yul\":7897:7902   */\n      dup5\n        /* \"#utility.yul\":7894:7895   */\n      0x08\n        /* \"#utility.yul\":7890:7903   */\n      mul\n        /* \"#utility.yul\":7861:7912   */\n      tag_78\n      jump\t// in\n    tag_171:\n        /* \"#utility.yul\":7857:7913   */\n      not\n        /* \"#utility.yul\":7942:7946   */\n      dup1\n        /* \"#utility.yul\":7936:7940   */\n      dup4\n        /* \"#utility.yul\":7932:7947   */\n      and\n        /* \"#utility.yul\":7922:7947   */\n      swap2\n      pop\n        /* \"#utility.yul\":7835:7953   */\n      pop\n        /* \"#utility.yul\":7784:7953   */\n      swap3\n      swap2\n      pop\n      pop\n      jump\t// out\n        /* \"#utility.yul\":7958:8253   */\n    tag_80:\n        /* \"#utility.yul\":8034:8038   */\n      0x00\n        /* \"#utility.yul\":8180:8209   */\n      tag_173\n        /* \"#utility.yul\":8205:8208   */\n      dup4\n        /* \"#utility.yul\":8199:8203   */\n      dup4\n        /* \"#utility.yul\":8180:8209   */\n      tag_79\n      jump\t// in\n    tag_173:\n        /* \"#utility.yul\":8172:8209   */\n      swap2\n      pop\n        /* \"#utility.yul\":8242:8245   */\n      dup3\n        /* \"#utility.yul\":8239:8240   */\n      0x02\n        /* \"#utility.yul\":8235:8246   */\n      mul\n        /* \"#utility.yul\":8229:8233   */\n      dup3\n        /* \"#utility.yul\":8226:8247   */\n      or\n        /* \"#utility.yul\":8218:8247   */\n      swap1\n      pop\n        /* \"#utility.yul\":7958:8253   */\n      swap3\n      swap2\n      pop\n      pop\n      jump\t// out\n        /* \"#utility.yul\":8258:9653   */\n    tag_32:\n        /* \"#utility.yul\":8375:8412   */\n      tag_175\n        /* \"#utility.yul\":8408:8411   */\n      dup3\n        /* \"#utility.yul\":8375:8412   */\n      tag_47\n      jump\t// in\n    tag_175:\n        /* \"#utility.yul\":8477:8495   */\n      0xffffffffffffffff\n        /* \"#utility.yul\":8469:8475   */\n      dup2\n        /* \"#utility.yul\":8466:8496   */\n      gt\n        /* \"#utility.yul\":8463:8519   */\n      iszero\n      tag_176\n      jumpi\n        /* \"#utility.yul\":8499:8517   */\n      tag_177\n      tag_57\n      jump\t// in\n    tag_177:\n        /* \"#utility.yul\":8463:8519   */\n    tag_176:\n        /* \"#utility.yul\":8543:8581   */\n      tag_178\n        /* \"#utility.yul\":8575:8579   */\n      dup3\n        /* \"#utility.yul\":8569:8580   */\n      sload\n        /* \"#utility.yul\":8543:8581   */\n      tag_20\n      jump\t// in\n    tag_178:\n        /* \"#utility.yul\":8628:8695   */\n      tag_179\n        /* \"#utility.yul\":8688:8694   */\n      dup3\n        /* \"#utility.yul\":8680:8686   */\n      dup3\n        /* \"#utility.yul\":8674:8678   */\n      dup6\n        /* \"#utility.yul\":8628:8695   */\n      tag_77\n      jump\t// in\n    tag_179:\n        /* \"#utility.yul\":8722:8723   */\n      0x00\n        /* \"#utility.yul\":8746:8750   */\n      0x20\n        /* \"#utility.yul\":8733:8750   */\n      swap1\n      pop\n        /* \"#utility.yul\":8778:8780   */\n      0x1f\n        /* \"#utility.yul\":8770:8776   */\n      dup4\n        /* \"#utility.yul\":8767:8781   */\n      gt\n        /* \"#utility.yul\":8795:8796   */\n      0x01\n        /* \"#utility.yul\":8790:9408   */\n      dup2\n      eq\n      tag_181\n      jumpi\n        /* \"#utility.yul\":9452:9453   */\n      0x00\n        /* \"#utility.yul\":9469:9475   */\n      dup5\n        /* \"#utility.yul\":9466:9543   */\n      iszero\n      tag_182\n      jumpi\n        /* \"#utility.yul\":9518:9527   */\n      dup3\n        /* \"#utility.yul\":9513:9516   */\n      dup8\n        /* \"#utility.yul\":9509:9528   */\n      add\n        /* \"#utility.yul\":9503:9529   */\n      mload\n        /* \"#utility.yul\":9494:9529   */\n      swap1\n      pop\n        /* \"#utility.yul\":9466:9543   */\n    tag_182:\n        /* \"#utility.yul\":9569:9636   */\n      tag_183\n        /* \"#utility.yul\":9629:9635   */\n      dup6\n        /* \"#utility.yul\":9622:9627   */\n      dup3\n        /* \"#utility.yul\":9569:9636   */\n      tag_80\n      jump\t// in\n    tag_183:\n        /* \"#utility.yul\":9563:9567   */\n      dup7\n        /* \"#utility.yul\":9556:9637   */\n      sstore\n        /* \"#utility.yul\":9425:9647   */\n      pop\n        /* \"#utility.yul\":8760:9647   */\n      jump(tag_180)\n        /* \"#utility.yul\":8790:9408   */\n    tag_181:\n        /* \"#utility.yul\":8842:8846   */\n      0x1f\n        /* \"#utility.yul\":8838:8847   */\n      not\n        /* \"#utility.yul\":8830:8836   */\n      dup5\n        /* \"#utility.yul\":8826:8848   */\n      and\n        /* \"#utility.yul\":8876:8913   */\n      tag_184\n        /* \"#utility.yul\":8908:8912   */\n      dup7\n        /* \"#utility.yul\":8876:8913   */\n      tag_65\n      jump\t// in\n    tag_184:\n        /* \"#utility.yul\":8935:8936   */\n      0x00\n        /* \"#utility.yul\":8949:9157   */\n    tag_185:\n        /* \"#utility.yul\":8963:8970   */\n      dup3\n        /* \"#utility.yul\":8960:8961   */\n      dup2\n        /* \"#utility.yul\":8957:8971   */\n      lt\n        /* \"#utility.yul\":8949:9157   */\n      iszero\n      tag_187\n      jumpi\n        /* \"#utility.yul\":9042:9051   */\n      dup5\n        /* \"#utility.yul\":9037:9040   */\n      dup10\n        /* \"#utility.yul\":9033:9052   */\n      add\n        /* \"#utility.yul\":9027:9053   */\n      mload\n        /* \"#utility.yul\":9019:9025   */\n      dup3\n        /* \"#utility.yul\":9012:9054   */\n      sstore\n        /* \"#utility.yul\":9093:9094   */\n      0x01\n        /* \"#utility.yul\":9085:9091   */\n      dup3\n        /* \"#utility.yul\":9081:9095   */\n      add\n        /* \"#utility.yul\":9071:9095   */\n      swap2\n      pop\n        /* \"#utility.yul\":9140:9142   */\n      0x20\n        /* \"#utility.yul\":9129:9138   */\n      dup6\n        /* \"#utility.yul\":9125:9143   */\n      add\n        /* \"#utility.yul\":9112:9143   */\n      swap5\n      pop\n        /* \"#utility.yul\":8986:8990   */\n      0x20\n        /* \"#utility.yul\":8983:8984   */\n      dup2\n        /* \"#utility.yul\":8979:8991   */\n      add\n        /* \"#utility.yul\":8974:8991   */\n      swap1\n      pop\n        /* \"#utility.yul\":8949:9157   */\n      jump(tag_185)\n    tag_187:\n        /* \"#utility.yul\":9185:9191   */\n      dup7\n        /* \"#utility.yul\":9176:9183   */\n      dup4\n        /* \"#utility.yul\":9173:9192   */\n      lt\n        /* \"#utility.yul\":9170:9349   */\n      iszero\n      tag_188\n      jumpi\n        /* \"#utility.yul\":9243:9252   */\n      dup5\n        /* \"#utility.yul\":9238:9241   */\n      dup10\n        /* \"#utility.yul\":9234:9253   */\n      add\n        /* \"#utility.yul\":9228:9254   */\n      mload\n        /* \"#utility.yul\":9286:9334   */\n      tag_189\n        /* \"#utility.yul\":9328:9332   */\n      0x1f\n        /* \"#utility.yul\":9320:9326   */\n      dup10\n        /* \"#utility.yul\":9316:9333   */\n      and\n        /* \"#utility.yul\":9305:9314   */\n      dup3\n        /* \"#utility.yul\":9286:9334   */\n      tag_79\n      jump\t// in\n    tag_189:\n        /* \"#utility.yul\":9278:9284   */\n      dup4\n        /* \"#utility.yul\":9271:9335   */\n      sstore\n        /* \"#utility.yul\":9193:9349   */\n      pop\n        /* \"#utility.yul\":9170:9349   */\n    tag_188:\n        /* \"#utility.yul\":9395:9396   */\n      0x01\n        /* \"#utility.yul\":9391:9392   */\n      0x02\n        /* \"#utility.yul\":9383:9389   */\n      dup9\n        /* \"#utility.yul\":9379:9393   */\n      mul\n        /* \"#utility.yul\":9375:9397   */\n      add\n        /* \"#utility.yul\":9369:9373   */\n      dup9\n        /* \"#utility.yul\":9362:9398   */\n      sstore\n        /* \"#utility.yul\":8797:9408   */\n      pop\n      pop\n      pop\n        /* \"#utility.yul\":8760:9647   */\n    tag_180:\n      pop\n        /* \"#utility.yul\":8350:9653   */\n      pop\n      pop\n      pop\n        /* \"#utility.yul\":8258:9653   */\n      pop\n      pop\n      jump\t// out\n\n    auxdata: 0xa264697066735822122070c966906f78e4aa75af7cc4ee1176717314ed39bbebe0b45bb0fddc7b86acf364736f6c634300081f0033\n}\n",
				"bytecode": {
					"linkReferences": {},
					"object": "6080604052348015600e575f5ffd5b5061089b8061001c5f395ff3fe608060405234801561000f575f5ffd5b506004361061003f575f3560e01c80632e64cec114610043578063aa70294214610062578063ebdf86ca14610093575b5f5ffd5b61004b6100af565b6040516100599291906103a8565b60405180910390f35b61007c6004803603810190610077919061051a565b6101d1565b60405161008a9291906103a8565b60405180910390f35b6100ad60048036038101906100a8919061051a565b610315565b005b6060805f60018180546100c1906105bd565b80601f01602080910402602001604051908101604052809291908181526020018280546100ed906105bd565b80156101385780601f1061010f57610100808354040283529160200191610138565b820191905f5260205f20905b81548152906001019060200180831161011b57829003601f168201915b5050505050915080805461014b906105bd565b80601f0160208091040260200160405190810160405280929190818152602001828054610177906105bd565b80156101c25780601f10610199576101008083540402835291602001916101c2565b820191905f5260205f20905b8154815290600101906020018083116101a557829003601f168201915b50505050509050915091509091565b606080835f90816101e29190610796565b5082600190816101f29190610796565b505f6001818054610202906105bd565b80601f016020809104026020016040519081016040528092919081815260200182805461022e906105bd565b80156102795780601f1061025057610100808354040283529160200191610279565b820191905f5260205f20905b81548152906001019060200180831161025c57829003601f168201915b5050505050915080805461028c906105bd565b80601f01602080910402602001604051908101604052809291908181526020018280546102b8906105bd565b80156103035780601f106102da57610100808354040283529160200191610303565b820191905f5260205f20905b8154815290600101906020018083116102e657829003601f168201915b50505050509050915091509250929050565b815f90816103239190610796565b5080600190816103339190610796565b505050565b5f81519050919050565b5f82825260208201905092915050565b8281835e5f83830152505050565b5f601f19601f8301169050919050565b5f61037a82610338565b6103848185610342565b9350610394818560208601610352565b61039d81610360565b840191505092915050565b5f6040820190508181035f8301526103c08185610370565b905081810360208301526103d48184610370565b90509392505050565b5f604051905090565b5f5ffd5b5f5ffd5b5f5ffd5b5f5ffd5b7f4e487b71000000000000000000000000000000000000000000000000000000005f52604160045260245ffd5b61042c82610360565b810181811067ffffffffffffffff8211171561044b5761044a6103f6565b5b80604052505050565b5f61045d6103dd565b90506104698282610423565b919050565b5f67ffffffffffffffff821115610488576104876103f6565b5b61049182610360565b9050602081019050919050565b828183375f83830152505050565b5f6104be6104b98461046e565b610454565b9050828152602081018484840111156104da576104d96103f2565b5b6104e584828561049e565b509392505050565b5f82601f830112610501576105006103ee565b5b81356105118482602086016104ac565b91505092915050565b5f5f604083850312156105305761052f6103e6565b5b5f83013567ffffffffffffffff81111561054d5761054c6103ea565b5b610559858286016104ed565b925050602083013567ffffffffffffffff81111561057a576105796103ea565b5b610586858286016104ed565b9150509250929050565b7f4e487b71000000000000000000000000000000000000000000000000000000005f52602260045260245ffd5b5f60028204905060018216806105d457607f821691505b6020821081036105e7576105e6610590565b5b50919050565b5f819050815f5260205f209050919050565b5f6020601f8301049050919050565b5f82821b905092915050565b5f600883026106497fffffffffffffffffffffffffffffffffffffffffffffffffffffffffffffffff8261060e565b610653868361060e565b95508019841693508086168417925050509392505050565b5f819050919050565b5f819050919050565b5f61069761069261068d8461066b565b610674565b61066b565b9050919050565b5f819050919050565b6106b08361067d565b6106c46106bc8261069e565b84845461061a565b825550505050565b5f5f905090565b6106db6106cc565b6106e68184846106a7565b505050565b5b81811015610709576106fe5f826106d3565b6001810190506106ec565b5050565b601f82111561074e5761071f816105ed565b610728846105ff565b81016020851015610737578190505b61074b610743856105ff565b8301826106eb565b50505b505050565b5f82821c905092915050565b5f61076e5f1984600802610753565b1980831691505092915050565b5f610786838361075f565b9150826002028217905092915050565b61079f82610338565b67ffffffffffffffff8111156107b8576107b76103f6565b5b6107c282546105bd565b6107cd82828561070d565b5f60209050601f8311600181146107fe575f84156107ec578287015190505b6107f6858261077b565b86555061085d565b601f19841661080c866105ed565b5f5b828110156108335784890151825560018201915060208501945060208101905061080e565b86831015610850578489015161084c601f89168261075f565b8355505b6001600288020188555050505b50505050505056fea264697066735822122070c966906f78e4aa75af7cc4ee1176717314ed39bbebe0b45bb0fddc7b86acf364736f6c634300081f0033",
					"opcodes": "PUSH1 0x80 PUSH1 0x40 MSTORE CALLVALUE DUP1 ISZERO PUSH1 0xE JUMPI PUSH0 PUSH0 REVERT JUMPDEST POP PUSH2 0x89B DUP1 PUSH2 0x1C PUSH0 CODECOPY PUSH0 RETURN INVALID PUSH1 0x80 PUSH1 0x40 MSTORE CALLVALUE DUP1 ISZERO PUSH2 0xF JUMPI PUSH0 PUSH0 REVERT JUMPDEST POP PUSH1 0x4 CALLDATASIZE LT PUSH2 0x3F JUMPI PUSH0 CALLDATALOAD PUSH1 0xE0 SHR DUP1 PUSH4 0x2E64CEC1 EQ PUSH2 0x43 JUMPI DUP1 PUSH4 0xAA702942 EQ PUSH2 0x62 JUMPI DUP1 PUSH4 0xEBDF86CA EQ PUSH2 0x93 JUMPI JUMPDEST PUSH0 PUSH0 REVERT JUMPDEST PUSH2 0x4B PUSH2 0xAF JUMP JUMPDEST PUSH1 0x40 MLOAD PUSH2 0x59 SWAP3 SWAP2 SWAP1 PUSH2 0x3A8 JUMP JUMPDEST PUSH1 0x40 MLOAD DUP1 SWAP2 SUB SWAP1 RETURN JUMPDEST PUSH2 0x7C PUSH1 0x4 DUP1 CALLDATASIZE SUB DUP2 ADD SWAP1 PUSH2 0x77 SWAP2 SWAP1 PUSH2 0x51A JUMP JUMPDEST PUSH2 0x1D1 JUMP JUMPDEST PUSH1 0x40 MLOAD PUSH2 0x8A SWAP3 SWAP2 SWAP1 PUSH2 0x3A8 JUMP JUMPDEST PUSH1 0x40 MLOAD DUP1 SWAP2 SUB SWAP1 RETURN JUMPDEST PUSH2 0xAD PUSH1 0x4 DUP1 CALLDATASIZE SUB DUP2 ADD SWAP1 PUSH2 0xA8 SWAP2 SWAP1 PUSH2 0x51A JUMP JUMPDEST PUSH2 0x315 JUMP JUMPDEST STOP JUMPDEST PUSH1 0x60 DUP1 PUSH0 PUSH1 0x1 DUP2 DUP1 SLOAD PUSH2 0xC1 SWAP1 PUSH2 0x5BD JUMP JUMPDEST DUP1 PUSH1 0x1F ADD PUSH1 0x20 DUP1 SWAP2 DIV MUL PUSH1 0x20 ADD PUSH1 0x40 MLOAD SWAP1 DUP2 ADD PUSH1 0x40 MSTORE DUP1 SWAP3 SWAP2 SWAP1 DUP2 DUP2 MSTORE PUSH1 0x20 ADD DUP3 DUP1 SLOAD PUSH2 0xED SWAP1 PUSH2 0x5BD JUMP JUMPDEST DUP1 ISZERO PUSH2 0x138 JUMPI DUP1 PUSH1 0x1F LT PUSH2 0x10F JUMPI PUSH2 0x100 DUP1 DUP4 SLOAD DIV MUL DUP4 MSTORE SWAP2 PUSH1 0x20 ADD SWAP2 PUSH2 0x138 JUMP JUMPDEST DUP3 ADD SWAP2 SWAP1 PUSH0 MSTORE PUSH1 0x20 PUSH0 KECCAK256 SWAP1 JUMPDEST DUP2 SLOAD DUP2 MSTORE SWAP1 PUSH1 0x1 ADD SWAP1 PUSH1 0x20 ADD DUP1 DUP4 GT PUSH2 0x11B JUMPI DUP3 SWAP1 SUB PUSH1 0x1F AND DUP3 ADD SWAP2 JUMPDEST POP POP POP POP POP SWAP2 POP DUP1 DUP1 SLOAD PUSH2 0x14B SWAP1 PUSH2 0x5BD JUMP JUMPDEST DUP1 PUSH1 0x1F ADD PUSH1 0x20 DUP1 SWAP2 DIV MUL PUSH1 0x20 ADD PUSH1 0x40 MLOAD SWAP1 DUP2 ADD PUSH1 0x40 MSTORE DUP1 SWAP3 SWAP2 SWAP1 DUP2 DUP2 MSTORE PUSH1 0x20 ADD DUP3 DUP1 SLOAD PUSH2 0x177 SWAP1 PUSH2 0x5BD JUMP JUMPDEST DUP1 ISZERO PUSH2 0x1C2 JUMPI DUP1 PUSH1 0x1F LT PUSH2 0x199 JUMPI PUSH2 0x100 DUP1 DUP4 SLOAD DIV MUL DUP4 MSTORE SWAP2 PUSH1 0x20 ADD SWAP2 PUSH2 0x1C2 JUMP JUMPDEST DUP3 ADD SWAP2 SWAP1 PUSH0 MSTORE PUSH1 0x20 PUSH0 KECCAK256 SWAP1 JUMPDEST DUP2 SLOAD DUP2 MSTORE SWAP1 PUSH1 0x1 ADD SWAP1 PUSH1 0x20 ADD DUP1 DUP4 GT PUSH2 0x1A5 JUMPI DUP3 SWAP1 SUB PUSH1 0x1F AND DUP3 ADD SWAP2 JUMPDEST POP POP POP POP POP SWAP1 POP SWAP2 POP SWAP2 POP SWAP1 SWAP2 JUMP JUMPDEST PUSH1 0x60 DUP1 DUP4 PUSH0 SWAP1 DUP2 PUSH2 0x1E2 SWAP2 SWAP1 PUSH2 0x796 JUMP JUMPDEST POP DUP3 PUSH1 0x1 SWAP1 DUP2 PUSH2 0x1F2 SWAP2 SWAP1 PUSH2 0x796 JUMP JUMPDEST POP PUSH0 PUSH1 0x1 DUP2 DUP1 SLOAD PUSH2 0x202 SWAP1 PUSH2 0x5BD JUMP JUMPDEST DUP1 PUSH1 0x1F ADD PUSH1 0x20 DUP1 SWAP2 DIV MUL PUSH1 0x20 ADD PUSH1 0x40 MLOAD SWAP1 DUP2 ADD PUSH1 0x40 MSTORE DUP1 SWAP3 SWAP2 SWAP1 DUP2 DUP2 MSTORE PUSH1 0x20 ADD DUP3 DUP1 SLOAD PUSH2 0x22E SWAP1 PUSH2 0x5BD JUMP JUMPDEST DUP1 ISZERO PUSH2 0x279 JUMPI DUP1 PUSH1 0x1F LT PUSH2 0x250 JUMPI PUSH2 0x100 DUP1 DUP4 SLOAD DIV MUL DUP4 MSTORE SWAP2 PUSH1 0x20 ADD SWAP2 PUSH2 0x279 JUMP JUMPDEST DUP3 ADD SWAP2 SWAP1 PUSH0 MSTORE PUSH1 0x20 PUSH0 KECCAK256 SWAP1 JUMPDEST DUP2 SLOAD DUP2 MSTORE SWAP1 PUSH1 0x1 ADD SWAP1 PUSH1 0x20 ADD DUP1 DUP4 GT PUSH2 0x25C JUMPI DUP3 SWAP1 SUB PUSH1 0x1F AND DUP3 ADD SWAP2 JUMPDEST POP POP POP POP POP SWAP2 POP DUP1 DUP1 SLOAD PUSH2 0x28C SWAP1 PUSH2 0x5BD JUMP JUMPDEST DUP1 PUSH1 0x1F ADD PUSH1 0x20 DUP1 SWAP2 DIV MUL PUSH1 0x20 ADD PUSH1 0x40 MLOAD SWAP1 DUP2 ADD PUSH1 0x40 MSTORE DUP1 SWAP3 SWAP2 SWAP1 DUP2 DUP2 MSTORE PUSH1 0x20 ADD DUP3 DUP1 SLOAD PUSH2 0x2B8 SWAP1 PUSH2 0x5BD JUMP JUMPDEST DUP1 ISZERO PUSH2 0x303 JUMPI DUP1 PUSH1 0x1F LT PUSH2 0x2DA JUMPI PUSH2 0x100 DUP1 DUP4 SLOAD DIV MUL DUP4 MSTORE SWAP2 PUSH1 0x20 ADD SWAP2 PUSH2 0x303 JUMP JUMPDEST DUP3 ADD SWAP2 SWAP1 PUSH0 MSTORE PUSH1 0x20 PUSH0 KECCAK256 SWAP1 JUMPDEST DUP2 SLOAD DUP2 MSTORE SWAP1 PUSH1 0x1 ADD SWAP1 PUSH1 0x20 ADD DUP1 DUP4 GT PUSH2 0x2E6 JUMPI DUP3 SWAP1 SUB PUSH1 0x1F AND DUP3 ADD SWAP2 JUMPDEST POP POP POP POP POP SWAP1 POP SWAP2 POP SWAP2 POP SWAP3 POP SWAP3 SWAP1 POP JUMP JUMPDEST DUP2 PUSH0 SWAP1 DUP2 PUSH2 0x323 SWAP2 SWAP1 PUSH2 0x796 JUMP JUMPDEST POP DUP1 PUSH1 0x1 SWAP1 DUP2 PUSH2 0x333 SWAP2 SWAP1 PUSH2 0x796 JUMP JUMPDEST POP POP POP JUMP JUMPDEST PUSH0 DUP2 MLOAD SWAP1 POP SWAP2 SWAP1 POP JUMP JUMPDEST PUSH0 DUP3 DUP3 MSTORE PUSH1 0x20 DUP3 ADD SWAP1 POP SWAP3 SWAP2 POP POP JUMP JUMPDEST DUP3 DUP2 DUP4 MCOPY PUSH0 DUP4 DUP4 ADD MSTORE POP POP POP JUMP JUMPDEST PUSH0 PUSH1 0x1F NOT PUSH1 0x1F DUP4 ADD AND SWAP1 POP SWAP2 SWAP1 POP JUMP JUMPDEST PUSH0 PUSH2 0x37A DUP3 PUSH2 0x338 JUMP JUMPDEST PUSH2 0x384 DUP2 DUP6 PUSH2 0x342 JUMP JUMPDEST SWAP4 POP PUSH2 0x394 DUP2 DUP6 PUSH1 0x20 DUP7 ADD PUSH2 0x352 JUMP JUMPDEST PUSH2 0x39D DUP2 PUSH2 0x360 JUMP JUMPDEST DUP5 ADD SWAP2 POP POP SWAP3 SWAP2 POP POP JUMP JUMPDEST PUSH0 PUSH1 0x40 DUP3 ADD SWAP1 POP DUP2 DUP2 SUB PUSH0 DUP4 ADD MSTORE PUSH2 0x3C0 DUP2 DUP6 PUSH2 0x370 JUMP JUMPDEST SWAP1 POP DUP2 DUP2 SUB PUSH1 0x20 DUP4 ADD MSTORE PUSH2 0x3D4 DUP2 DUP5 PUSH2 0x370 JUMP JUMPDEST SWAP1 POP SWAP4 SWAP3 POP POP POP JUMP JUMPDEST PUSH0 PUSH1 0x40 MLOAD SWAP1 POP SWAP1 JUMP JUMPDEST PUSH0 PUSH0 REVERT JUMPDEST PUSH0 PUSH0 REVERT JUMPDEST PUSH0 PUSH0 REVERT JUMPDEST PUSH0 PUSH0 REVERT JUMPDEST PUSH32 0x4E487B7100000000000000000000000000000000000000000000000000000000 PUSH0 MSTORE PUSH1 0x41 PUSH1 0x4 MSTORE PUSH1 0x24 PUSH0 REVERT JUMPDEST PUSH2 0x42C DUP3 PUSH2 0x360 JUMP JUMPDEST DUP2 ADD DUP2 DUP2 LT PUSH8 0xFFFFFFFFFFFFFFFF DUP3 GT OR ISZERO PUSH2 0x44B JUMPI PUSH2 0x44A PUSH2 0x3F6 JUMP JUMPDEST JUMPDEST DUP1 PUSH1 0x40 MSTORE POP POP POP JUMP JUMPDEST PUSH0 PUSH2 0x45D PUSH2 0x3DD JUMP JUMPDEST SWAP1 POP PUSH2 0x469 DUP3 DUP3 PUSH2 0x423 JUMP JUMPDEST SWAP2 SWAP1 POP JUMP JUMPDEST PUSH0 PUSH8 0xFFFFFFFFFFFFFFFF DUP3 GT ISZERO PUSH2 0x488 JUMPI PUSH2 0x487 PUSH2 0x3F6 JUMP JUMPDEST JUMPDEST PUSH2 0x491 DUP3 PUSH2 0x360 JUMP JUMPDEST SWAP1 POP PUSH1 0x20 DUP2 ADD SWAP1 POP SWAP2 SWAP1 POP JUMP JUMPDEST DUP3 DUP2 DUP4 CALLDATACOPY PUSH0 DUP4 DUP4 ADD MSTORE POP POP POP JUMP JUMPDEST PUSH0 PUSH2 0x4BE PUSH2 0x4B9 DUP5 PUSH2 0x46E JUMP JUMPDEST PUSH2 0x454 JUMP JUMPDEST SWAP1 POP DUP3 DUP2 MSTORE PUSH1 0x20 DUP2 ADD DUP5 DUP5 DUP5 ADD GT ISZERO PUSH2 0x4DA JUMPI PUSH2 0x4D9 PUSH2 0x3F2 JUMP JUMPDEST JUMPDEST PUSH2 0x4E5 DUP5 DUP3 DUP6 PUSH2 0x49E JUMP JUMPDEST POP SWAP4 SWAP3 POP POP POP JUMP JUMPDEST PUSH0 DUP3 PUSH1 0x1F DUP4 ADD SLT PUSH2 0x501 JUMPI PUSH2 0x500 PUSH2 0x3EE JUMP JUMPDEST JUMPDEST DUP2 CALLDATALOAD PUSH2 0x511 DUP5 DUP3 PUSH1 0x20 DUP7 ADD PUSH2 0x4AC JUMP JUMPDEST SWAP2 POP POP SWAP3 SWAP2 POP POP JUMP JUMPDEST PUSH0 PUSH0 PUSH1 0x40 DUP4 DUP6 SUB SLT ISZERO PUSH2 0x530 JUMPI PUSH2 0x52F PUSH2 0x3E6 JUMP JUMPDEST JUMPDEST PUSH0 DUP4 ADD CALLDATALOAD PUSH8 0xFFFFFFFFFFFFFFFF DUP2 GT ISZERO PUSH2 0x54D JUMPI PUSH2 0x54C PUSH2 0x3EA JUMP JUMPDEST JUMPDEST PUSH2 0x559 DUP6 DUP3 DUP7 ADD PUSH2 0x4ED JUMP JUMPDEST SWAP3 POP POP PUSH1 0x20 DUP4 ADD CALLDATALOAD PUSH8 0xFFFFFFFFFFFFFFFF DUP2 GT ISZERO PUSH2 0x57A JUMPI PUSH2 0x579 PUSH2 0x3EA JUMP JUMPDEST JUMPDEST PUSH2 0x586 DUP6 DUP3 DUP7 ADD PUSH2 0x4ED JUMP JUMPDEST SWAP2 POP POP SWAP3 POP SWAP3 SWAP1 POP JUMP JUMPDEST PUSH32 0x4E487B7100000000000000000000000000000000000000000000000000000000 PUSH0 MSTORE PUSH1 0x22 PUSH1 0x4 MSTORE PUSH1 0x24 PUSH0 REVERT JUMPDEST PUSH0 PUSH1 0x2 DUP3 DIV SWAP1 POP PUSH1 0x1 DUP3 AND DUP1 PUSH2 0x5D4 JUMPI PUSH1 0x7F DUP3 AND SWAP2 POP JUMPDEST PUSH1 0x20 DUP3 LT DUP2 SUB PUSH2 0x5E7 JUMPI PUSH2 0x5E6 PUSH2 0x590 JUMP JUMPDEST JUMPDEST POP SWAP2 SWAP1 POP JUMP JUMPDEST PUSH0 DUP2 SWAP1 POP DUP2 PUSH0 MSTORE PUSH1 0x20 PUSH0 KECCAK256 SWAP1 POP SWAP2 SWAP1 POP JUMP JUMPDEST PUSH0 PUSH1 0x20 PUSH1 0x1F DUP4 ADD DIV SWAP1 POP SWAP2 SWAP1 POP JUMP JUMPDEST PUSH0 DUP3 DUP3 SHL SWAP1 POP SWAP3 SWAP2 POP POP JUMP JUMPDEST PUSH0 PUSH1 0x8 DUP4 MUL PUSH2 0x649 PUSH32 0xFFFFFFFFFFFFFFFFFFFFFFFFFFFFFFFFFFFFFFFFFFFFFFFFFFFFFFFFFFFFFFFF DUP3 PUSH2 0x60E JUMP JUMPDEST PUSH2 0x653 DUP7 DUP4 PUSH2 0x60E JUMP JUMPDEST SWAP6 POP DUP1 NOT DUP5 AND SWAP4 POP DUP1 DUP7 AND DUP5 OR SWAP3 POP POP POP SWAP4 SWAP3 POP POP POP JUMP JUMPDEST PUSH0 DUP2 SWAP1 POP SWAP2 SWAP1 POP JUMP JUMPDEST PUSH0 DUP2 SWAP1 POP SWAP2 SWAP1 POP JUMP JUMPDEST PUSH0 PUSH2 0x697 PUSH2 0x692 PUSH2 0x68D DUP5 PUSH2 0x66B JUMP JUMPDEST PUSH2 0x674 JUMP JUMPDEST PUSH2 0x66B JUMP JUMPDEST SWAP1 POP SWAP2 SWAP1 POP JUMP JUMPDEST PUSH0 DUP2 SWAP1 POP SWAP2 SWAP1 POP JUMP JUMPDEST PUSH2 0x6B0 DUP4 PUSH2 0x67D JUMP JUMPDEST PUSH2 0x6C4 PUSH2 0x6BC DUP3 PUSH2 0x69E JUMP JUMPDEST DUP5 DUP5 SLOAD PUSH2 0x61A JUMP JUMPDEST DUP3 SSTORE POP POP POP POP JUMP JUMPDEST PUSH0 PUSH0 SWAP1 POP SWAP1 JUMP JUMPDEST PUSH2 0x6DB PUSH2 0x6CC JUMP JUMPDEST PUSH2 0x6E6 DUP2 DUP5 DUP5 PUSH2 0x6A7 JUMP JUMPDEST POP POP POP JUMP JUMPDEST JUMPDEST DUP2 DUP2 LT ISZERO PUSH2 0x709 JUMPI PUSH2 0x6FE PUSH0 DUP3 PUSH2 0x6D3 JUMP JUMPDEST PUSH1 0x1 DUP2 ADD SWAP1 POP PUSH2 0x6EC JUMP JUMPDEST POP POP JUMP JUMPDEST PUSH1 0x1F DUP3 GT ISZERO PUSH2 0x74E JUMPI PUSH2 0x71F DUP2 PUSH2 0x5ED JUMP JUMPDEST PUSH2 0x728 DUP5 PUSH2 0x5FF JUMP JUMPDEST DUP2 ADD PUSH1 0x20 DUP6 LT ISZERO PUSH2 0x737 JUMPI DUP2 SWAP1 POP JUMPDEST PUSH2 0x74B PUSH2 0x743 DUP6 PUSH2 0x5FF JUMP JUMPDEST DUP4 ADD DUP3 PUSH2 0x6EB JUMP JUMPDEST POP POP JUMPDEST POP POP POP JUMP JUMPDEST PUSH0 DUP3 DUP3 SHR SWAP1 POP SWAP3 SWAP2 POP POP JUMP JUMPDEST PUSH0 PUSH2 0x76E PUSH0 NOT DUP5 PUSH1 0x8 MUL PUSH2 0x753 JUMP JUMPDEST NOT DUP1 DUP4 AND SWAP2 POP POP SWAP3 SWAP2 POP POP JUMP JUMPDEST PUSH0 PUSH2 0x786 DUP4 DUP4 PUSH2 0x75F JUMP JUMPDEST SWAP2 POP DUP3 PUSH1 0x2 MUL DUP3 OR SWAP1 POP SWAP3 SWAP2 POP POP JUMP JUMPDEST PUSH2 0x79F DUP3 PUSH2 0x338 JUMP JUMPDEST PUSH8 0xFFFFFFFFFFFFFFFF DUP2 GT ISZERO PUSH2 0x7B8 JUMPI PUSH2 0x7B7 PUSH2 0x3F6 JUMP JUMPDEST JUMPDEST PUSH2 0x7C2 DUP3 SLOAD PUSH2 0x5BD JUMP JUMPDEST PUSH2 0x7CD DUP3 DUP3 DUP6 PUSH2 0x70D JUMP JUMPDEST PUSH0 PUSH1 0x20 SWAP1 POP PUSH1 0x1F DUP4 GT PUSH1 0x1 DUP2 EQ PUSH2 0x7FE JUMPI PUSH0 DUP5 ISZERO PUSH2 0x7EC JUMPI DUP3 DUP8 ADD MLOAD SWAP1 POP JUMPDEST PUSH2 0x7F6 DUP6 DUP3 PUSH2 0x77B JUMP JUMPDEST DUP7 SSTORE POP PUSH2 0x85D JUMP JUMPDEST PUSH1 0x1F NOT DUP5 AND PUSH2 0x80C DUP7 PUSH2 0x5ED JUMP JUMPDEST PUSH0 JUMPDEST DUP3 DUP2 LT ISZERO PUSH2 0x833 JUMPI DUP5 DUP10 ADD MLOAD DUP3 SSTORE PUSH1 0x1 DUP3 ADD SWAP2 POP PUSH1 0x20 DUP6 ADD SWAP5 POP PUSH1 0x20 DUP2 ADD SWAP1 POP PUSH2 0x80E JUMP JUMPDEST DUP7 DUP4 LT ISZERO PUSH2 0x850 JUMPI DUP5 DUP10 ADD MLOAD PUSH2 0x84C PUSH1 0x1F DUP10 AND DUP3 PUSH2 0x75F JUMP JUMPDEST DUP4 SSTORE POP JUMPDEST PUSH1 0x1 PUSH1 0x2 DUP9 MUL ADD DUP9 SSTORE POP POP POP JUMPDEST POP POP POP POP POP POP JUMP INVALID LOG2 PUSH5 0x6970667358 0x22 SLT KECCAK256 PUSH17 0xC966906F78E4AA75AF7CC4EE1176717314 0xED CODECOPY 0xBB 0xEB RJUMP 0xB45B 0xB0 REVERT 0xDC PUSH28 0x86ACF364736F6C634300081F00330000000000000000000000000000 "
				},
				"gasEstimates": {
					"creation": {
						"codeDepositCost": "440600",
						"executionCost": "472",
						"totalCost": "441072"
					},
					"external": {
						"add(string,string)": "infinite",
						"retrieve()": "infinite",
						"saveAndRetrieve(string,string)": "infinite"
					}
				},
				"methodIdentifiers": {
					"add(string,string)": "ebdf86ca",
					"retrieve()": "2e64cec1",
					"saveAndRetrieve(string,string)": "aa702942"
				}
			},
			"storageLayout": {
				"storage": [
					{
						"astId": 3,
						"contract": "guyue2/day2-SaveMyName.sol:SaveMyName",
						"label": "name",
						"offset": 0,
						"slot": "0",
						"type": "t_string_storage"
					},
					{
						"astId": 5,
						"contract": "guyue2/day2-SaveMyName.sol:SaveMyName",
						"label": "bio",
						"offset": 0,
						"slot": "1",
						"type": "t_string_storage"
					}
				],
				"types": {
					"t_string_storage": {
						"encoding": "bytes",
						"label": "string",
						"numberOfBytes": "32"
					}
				}
			},
			"userdoc": {
				"kind": "user",
				"methods": {},
				"version": 1
			}
		}
	}
}